{
  "_format": "hh-sol-artifact-1",
  "contractName": "SolunaToken",
  "sourceName": "contracts/SolunaToken.sol",
  "abi": [
    {
      "inputs": [
        {
          "internalType": "address",
          "name": "initialClaimSigner",
          "type": "address"
        }
      ],
      "stateMutability": "nonpayable",
      "type": "constructor"
    },
    {
      "inputs": [],
      "name": "ECDSAInvalidSignature",
      "type": "error"
    },
    {
      "inputs": [
        {
          "internalType": "uint256",
          "name": "length",
          "type": "uint256"
        }
      ],
      "name": "ECDSAInvalidSignatureLength",
      "type": "error"
    },
    {
      "inputs": [
        {
          "internalType": "bytes32",
          "name": "s",
          "type": "bytes32"
        }
      ],
      "name": "ECDSAInvalidSignatureS",
      "type": "error"
    },
    {
      "inputs": [
        {
          "internalType": "address",
          "name": "spender",
          "type": "address"
        },
        {
          "internalType": "uint256",
          "name": "allowance",
          "type": "uint256"
        },
        {
          "internalType": "uint256",
          "name": "needed",
          "type": "uint256"
        }
      ],
      "name": "ERC20InsufficientAllowance",
      "type": "error"
    },
    {
      "inputs": [
        {
          "internalType": "address",
          "name": "sender",
          "type": "address"
        },
        {
          "internalType": "uint256",
          "name": "balance",
          "type": "uint256"
        },
        {
          "internalType": "uint256",
          "name": "needed",
          "type": "uint256"
        }
      ],
      "name": "ERC20InsufficientBalance",
      "type": "error"
    },
    {
      "inputs": [
        {
          "internalType": "address",
          "name": "approver",
          "type": "address"
        }
      ],
      "name": "ERC20InvalidApprover",
      "type": "error"
    },
    {
      "inputs": [
        {
          "internalType": "address",
          "name": "receiver",
          "type": "address"
        }
      ],
      "name": "ERC20InvalidReceiver",
      "type": "error"
    },
    {
      "inputs": [
        {
          "internalType": "address",
          "name": "sender",
          "type": "address"
        }
      ],
      "name": "ERC20InvalidSender",
      "type": "error"
    },
    {
      "inputs": [
        {
          "internalType": "address",
          "name": "spender",
          "type": "address"
        }
      ],
      "name": "ERC20InvalidSpender",
      "type": "error"
    },
    {
      "inputs": [
        {
          "internalType": "address",
          "name": "owner",
          "type": "address"
        }
      ],
      "name": "OwnableInvalidOwner",
      "type": "error"
    },
    {
      "inputs": [
        {
          "internalType": "address",
          "name": "account",
          "type": "address"
        }
      ],
      "name": "OwnableUnauthorizedAccount",
      "type": "error"
    },
    {
      "anonymous": false,
      "inputs": [
        {
          "indexed": true,
          "internalType": "address",
          "name": "owner",
          "type": "address"
        },
        {
          "indexed": true,
          "internalType": "address",
          "name": "spender",
          "type": "address"
        },
        {
          "indexed": false,
          "internalType": "uint256",
          "name": "value",
          "type": "uint256"
        }
      ],
      "name": "Approval",
      "type": "event"
    },
    {
      "anonymous": false,
      "inputs": [
        {
          "indexed": true,
          "internalType": "address",
          "name": "previousOwner",
          "type": "address"
        },
        {
          "indexed": true,
          "internalType": "address",
          "name": "newOwner",
          "type": "address"
        }
      ],
      "name": "OwnershipTransferred",
      "type": "event"
    },
    {
      "anonymous": false,
      "inputs": [
        {
          "indexed": true,
          "internalType": "address",
          "name": "from",
          "type": "address"
        },
        {
          "indexed": true,
          "internalType": "address",
          "name": "to",
          "type": "address"
        },
        {
          "indexed": false,
          "internalType": "uint256",
          "name": "value",
          "type": "uint256"
        }
      ],
      "name": "Transfer",
      "type": "event"
    },
    {
      "inputs": [
        {
          "internalType": "address",
          "name": "owner",
          "type": "address"
        },
        {
          "internalType": "address",
          "name": "spender",
          "type": "address"
        }
      ],
      "name": "allowance",
      "outputs": [
        {
          "internalType": "uint256",
          "name": "",
          "type": "uint256"
        }
      ],
      "stateMutability": "view",
      "type": "function"
    },
    {
      "inputs": [
        {
          "internalType": "address",
          "name": "spender",
          "type": "address"
        },
        {
          "internalType": "uint256",
          "name": "value",
          "type": "uint256"
        }
      ],
      "name": "approve",
      "outputs": [
        {
          "internalType": "bool",
          "name": "",
          "type": "bool"
        }
      ],
      "stateMutability": "nonpayable",
      "type": "function"
    },
    {
      "inputs": [
        {
          "internalType": "address",
          "name": "account",
          "type": "address"
        }
      ],
      "name": "balanceOf",
      "outputs": [
        {
          "internalType": "uint256",
          "name": "",
          "type": "uint256"
        }
      ],
      "stateMutability": "view",
      "type": "function"
    },
    {
      "inputs": [],
      "name": "claimSigner",
      "outputs": [
        {
          "internalType": "address",
          "name": "",
          "type": "address"
        }
      ],
      "stateMutability": "view",
      "type": "function"
    },
    {
      "inputs": [
        {
          "internalType": "address",
          "name": "to",
          "type": "address"
        },
        {
          "internalType": "uint256",
          "name": "amount",
          "type": "uint256"
        },
        {
          "internalType": "bytes",
          "name": "signature",
          "type": "bytes"
        },
        {
          "internalType": "bytes32",
          "name": "nonce",
          "type": "bytes32"
        }
      ],
      "name": "claimToken",
      "outputs": [],
      "stateMutability": "nonpayable",
      "type": "function"
    },
    {
      "inputs": [],
      "name": "decimals",
      "outputs": [
        {
          "internalType": "uint8",
          "name": "",
          "type": "uint8"
        }
      ],
      "stateMutability": "view",
      "type": "function"
    },
    {
      "inputs": [],
      "name": "name",
      "outputs": [
        {
          "internalType": "string",
          "name": "",
          "type": "string"
        }
      ],
      "stateMutability": "view",
      "type": "function"
    },
    {
      "inputs": [],
      "name": "owner",
      "outputs": [
        {
          "internalType": "address",
          "name": "",
          "type": "address"
        }
      ],
      "stateMutability": "view",
      "type": "function"
    },
    {
      "inputs": [],
      "name": "renounceOwnership",
      "outputs": [],
      "stateMutability": "nonpayable",
      "type": "function"
    },
    {
      "inputs": [
        {
          "internalType": "address",
          "name": "newSigner",
          "type": "address"
        }
      ],
      "name": "setClaimSigner",
      "outputs": [],
      "stateMutability": "nonpayable",
      "type": "function"
    },
    {
      "inputs": [],
      "name": "symbol",
      "outputs": [
        {
          "internalType": "string",
          "name": "",
          "type": "string"
        }
      ],
      "stateMutability": "view",
      "type": "function"
    },
    {
      "inputs": [],
      "name": "totalSupply",
      "outputs": [
        {
          "internalType": "uint256",
          "name": "",
          "type": "uint256"
        }
      ],
      "stateMutability": "view",
      "type": "function"
    },
    {
      "inputs": [
        {
          "internalType": "address",
          "name": "to",
          "type": "address"
        },
        {
          "internalType": "uint256",
          "name": "value",
          "type": "uint256"
        }
      ],
      "name": "transfer",
      "outputs": [
        {
          "internalType": "bool",
          "name": "",
          "type": "bool"
        }
      ],
      "stateMutability": "nonpayable",
      "type": "function"
    },
    {
      "inputs": [
        {
          "internalType": "address",
          "name": "from",
          "type": "address"
        },
        {
          "internalType": "address",
          "name": "to",
          "type": "address"
        },
        {
          "internalType": "uint256",
          "name": "value",
          "type": "uint256"
        }
      ],
      "name": "transferFrom",
      "outputs": [
        {
          "internalType": "bool",
          "name": "",
          "type": "bool"
        }
      ],
      "stateMutability": "nonpayable",
      "type": "function"
    },
    {
      "inputs": [
        {
          "internalType": "address",
          "name": "newOwner",
          "type": "address"
        }
      ],
      "name": "transferOwnership",
      "outputs": [],
      "stateMutability": "nonpayable",
      "type": "function"
    },
    {
      "inputs": [
        {
          "internalType": "bytes32",
          "name": "",
          "type": "bytes32"
        }
      ],
      "name": "usedNonces",
      "outputs": [
        {
          "internalType": "bool",
          "name": "",
          "type": "bool"
        }
      ],
      "stateMutability": "view",
      "type": "function"
    }
  ],
  "bytecode": "0x60806040523480156200001157600080fd5b506040516200111a3803806200111a833981016040819052620000349162000146565b3360405180604001604052806006815260200165534f4c554e4160d01b8152506040518060400160405280600381526020016229a62760e91b81525081600390816200008191906200021d565b5060046200009082826200021d565b5050506001600160a01b038116620000c257604051631e4fbdf760e01b81526000600482015260240160405180910390fd5b620000cd81620000f4565b50600780546001600160a01b0319166001600160a01b0392909216919091179055620002e9565b600580546001600160a01b038381166001600160a01b0319831681179093556040519116919082907f8be0079c531659141344cd1fd0a4f28419497f9722a3daafe3b4186f6b6457e090600090a35050565b6000602082840312156200015957600080fd5b81516001600160a01b03811681146200017157600080fd5b9392505050565b634e487b7160e01b600052604160045260246000fd5b600181811c90821680620001a357607f821691505b602082108103620001c457634e487b7160e01b600052602260045260246000fd5b50919050565b601f8211156200021857600081815260208120601f850160051c81016020861015620001f35750805b601f850160051c820191505b818110156200021457828155600101620001ff565b5050505b505050565b81516001600160401b0381111562000239576200023962000178565b62000251816200024a84546200018e565b84620001ca565b602080601f831160018114620002895760008415620002705750858301515b600019600386901b1c1916600185901b17855562000214565b600085815260208120601f198616915b82811015620002ba5788860151825594840194600190910190840162000299565b5085821015620002d95787850151600019600388901b60f8161c191681555b5050505050600190811b01905550565b610e2180620002f96000396000f3fe608060405234801561001057600080fd5b50600436106101005760003560e01c80638da5cb5b11610097578063dd62ed3e11610066578063dd62ed3e14610213578063f2fde38b1461024c578063feb617241461025f578063fed80d431461028257600080fd5b80638da5cb5b146101c057806395d89b41146101e5578063a9059cbb146101ed578063d8ee36cb1461020057600080fd5b80632d856e2a116100d35780632d856e2a1461016b578063313ce5671461018057806370a082311461018f578063715018a6146101b857600080fd5b806306fdde0314610105578063095ea7b31461012357806318160ddd1461014657806323b872dd14610158575b600080fd5b61010d610295565b60405161011a9190610b53565b60405180910390f35b610136610131366004610bbd565b610327565b604051901515815260200161011a565b6002545b60405190815260200161011a565b610136610166366004610be7565b610341565b61017e610179366004610c39565b610365565b005b6040516012815260200161011a565b61014a61019d366004610d0c565b6001600160a01b031660009081526020819052604090205490565b61017e610513565b6005546001600160a01b03165b6040516001600160a01b03909116815260200161011a565b61010d610527565b6101366101fb366004610bbd565b610536565b6007546101cd906001600160a01b031681565b61014a610221366004610d2e565b6001600160a01b03918216600090815260016020908152604080832093909416825291909152205490565b61017e61025a366004610d0c565b610544565b61013661026d366004610d61565b60066020526000908152604090205460ff1681565b61017e610290366004610d0c565b610582565b6060600380546102a490610d7a565b80601f01602080910402602001604051908101604052809291908181526020018280546102d090610d7a565b801561031d5780601f106102f25761010080835404028352916020019161031d565b820191906000526020600020905b81548152906001019060200180831161030057829003601f168201915b5050505050905090565b6000336103358185856105ac565b60019150505b92915050565b60003361034f8582856105be565b61035a85858561063d565b506001949350505050565b60008181526006602052604090205460ff16156103e75760405162461bcd60e51b815260206004820152603560248201527f4e6f6e63652068617320616c7265616479206265656e207573656420285265706044820152743630bc9030ba3a30b1b5903232ba32b1ba32b2149760591b60648201526084015b60405180910390fd5b6040516bffffffffffffffffffffffff19606086901b16602082015260348101849052605481018290526000906074016040516020818303038152906040528051906020012090506000610468827f19457468657265756d205369676e6564204d6573736167653a0a3332000000006000908152601c91909152603c902090565b90506000610476828661069c565b6007549091506001600160a01b038083169116146104e85760405162461bcd60e51b815260206004820152602960248201527f496e76616c6964207369676e6174757265206f7220756e617574686f72697a65604482015268321039b4b3b732b91760b91b60648201526084016103de565b6104f287876106c6565b5050506000908152600660205260409020805460ff19166001179055505050565b61051b610700565b610525600061072d565b565b6060600480546102a490610d7a565b60003361033581858561063d565b61054c610700565b6001600160a01b03811661057657604051631e4fbdf760e01b8152600060048201526024016103de565b61057f8161072d565b50565b61058a610700565b600780546001600160a01b0319166001600160a01b0392909216919091179055565b6105b9838383600161077f565b505050565b6001600160a01b03838116600090815260016020908152604080832093861683529290522054600019811015610637578181101561062857604051637dc7a0d960e11b81526001600160a01b038416600482015260248101829052604481018390526064016103de565b6106378484848403600061077f565b50505050565b6001600160a01b03831661066757604051634b637e8f60e11b8152600060048201526024016103de565b6001600160a01b0382166106915760405163ec442f0560e01b8152600060048201526024016103de565b6105b9838383610854565b6000806000806106ac868661097e565b9250925092506106bc82826109cb565b5090949350505050565b6001600160a01b0382166106f05760405163ec442f0560e01b8152600060048201526024016103de565b6106fc60008383610854565b5050565b6005546001600160a01b031633146105255760405163118cdaa760e01b81523360048201526024016103de565b600580546001600160a01b038381166001600160a01b0319831681179093556040519116919082907f8be0079c531659141344cd1fd0a4f28419497f9722a3daafe3b4186f6b6457e090600090a35050565b6001600160a01b0384166107a95760405163e602df0560e01b8152600060048201526024016103de565b6001600160a01b0383166107d357604051634a1406b160e11b8152600060048201526024016103de565b6001600160a01b038085166000908152600160209081526040808320938716835292905220829055801561063757826001600160a01b0316846001600160a01b03167f8c5be1e5ebec7d5bd14f71427d1e84f3dd0314c0f7b2291e5b200ac8c7c3b9258460405161084691815260200190565b60405180910390a350505050565b6001600160a01b03831661087f5780600260008282546108749190610db4565b909155506108f19050565b6001600160a01b038316600090815260208190526040902054818110156108d25760405163391434e360e21b81526001600160a01b038516600482015260248101829052604481018390526064016103de565b6001600160a01b03841660009081526020819052604090209082900390555b6001600160a01b03821661090d5760028054829003905561092c565b6001600160a01b03821660009081526020819052604090208054820190555b816001600160a01b0316836001600160a01b03167fddf252ad1be2c89b69c2b068fc378daa952ba7f163c4a11628f55a4df523b3ef8360405161097191815260200190565b60405180910390a3505050565b600080600083516041036109b85760208401516040850151606086015160001a6109aa88828585610a84565b9550955095505050506109c4565b50508151600091506002905b9250925092565b60008260038111156109df576109df610dd5565b036109e8575050565b60018260038111156109fc576109fc610dd5565b03610a1a5760405163f645eedf60e01b815260040160405180910390fd5b6002826003811115610a2e57610a2e610dd5565b03610a4f5760405163fce698f760e01b8152600481018290526024016103de565b6003826003811115610a6357610a63610dd5565b036106fc576040516335e2f38360e21b8152600481018290526024016103de565b600080807f7fffffffffffffffffffffffffffffff5d576e7357a4501ddfe92f46681b20a0841115610abf5750600091506003905082610b49565b604080516000808252602082018084528a905260ff891692820192909252606081018790526080810186905260019060a0016020604051602081039080840390855afa158015610b13573d6000803e3d6000fd5b5050604051601f1901519150506001600160a01b038116610b3f57506000925060019150829050610b49565b9250600091508190505b9450945094915050565b600060208083528351808285015260005b81811015610b8057858101830151858201604001528201610b64565b506000604082860101526040601f19601f8301168501019250505092915050565b80356001600160a01b0381168114610bb857600080fd5b919050565b60008060408385031215610bd057600080fd5b610bd983610ba1565b946020939093013593505050565b600080600060608486031215610bfc57600080fd5b610c0584610ba1565b9250610c1360208501610ba1565b9150604084013590509250925092565b634e487b7160e01b600052604160045260246000fd5b60008060008060808587031215610c4f57600080fd5b610c5885610ba1565b935060208501359250604085013567ffffffffffffffff80821115610c7c57600080fd5b818701915087601f830112610c9057600080fd5b813581811115610ca257610ca2610c23565b604051601f8201601f19908116603f01168101908382118183101715610cca57610cca610c23565b816040528281528a6020848701011115610ce357600080fd5b826020860160208301376000928101602001929092525095989497509495606001359450505050565b600060208284031215610d1e57600080fd5b610d2782610ba1565b9392505050565b60008060408385031215610d4157600080fd5b610d4a83610ba1565b9150610d5860208401610ba1565b90509250929050565b600060208284031215610d7357600080fd5b5035919050565b600181811c90821680610d8e57607f821691505b602082108103610dae57634e487b7160e01b600052602260045260246000fd5b50919050565b8082018082111561033b57634e487b7160e01b600052601160045260246000fd5b634e487b7160e01b600052602160045260246000fdfea26469706673582212202341077d0a8f3fbe76cb845bc742af81c3eb0926846e5928d93fb0c2c375c5c764736f6c63430008140033",
  "linkReferences": {},
  "deployedLinkReferences": {}
}