{
  "_format": "hh-sol-artifact-1",
  "contractName": "ProofOfCare",
  "sourceName": "contracts/ProofOfCare.sol",
  "abi": [
    {
      "inputs": [
        {
          "internalType": "address",
          "name": "initialOwner",
          "type": "address"
        }
      ],
      "stateMutability": "nonpayable",
      "type": "constructor"
    },
    {
      "inputs": [
        {
          "internalType": "address",
          "name": "sender",
          "type": "address"
        },
        {
          "internalType": "uint256",
          "name": "tokenId",
          "type": "uint256"
        },
        {
          "internalType": "address",
          "name": "owner",
          "type": "address"
        }
      ],
      "name": "ERC721IncorrectOwner",
      "type": "error"
    },
    {
      "inputs": [
        {
          "internalType": "address",
          "name": "operator",
          "type": "address"
        },
        {
          "internalType": "uint256",
          "name": "tokenId",
          "type": "uint256"
        }
      ],
      "name": "ERC721InsufficientApproval",
      "type": "error"
    },
    {
      "inputs": [
        {
          "internalType": "address",
          "name": "approver",
          "type": "address"
        }
      ],
      "name": "ERC721InvalidApprover",
      "type": "error"
    },
    {
      "inputs": [
        {
          "internalType": "address",
          "name": "operator",
          "type": "address"
        }
      ],
      "name": "ERC721InvalidOperator",
      "type": "error"
    },
    {
      "inputs": [
        {
          "internalType": "address",
          "name": "owner",
          "type": "address"
        }
      ],
      "name": "ERC721InvalidOwner",
      "type": "error"
    },
    {
      "inputs": [
        {
          "internalType": "address",
          "name": "receiver",
          "type": "address"
        }
      ],
      "name": "ERC721InvalidReceiver",
      "type": "error"
    },
    {
      "inputs": [
        {
          "internalType": "address",
          "name": "sender",
          "type": "address"
        }
      ],
      "name": "ERC721InvalidSender",
      "type": "error"
    },
    {
      "inputs": [
        {
          "internalType": "uint256",
          "name": "tokenId",
          "type": "uint256"
        }
      ],
      "name": "ERC721NonexistentToken",
      "type": "error"
    },
    {
      "inputs": [
        {
          "internalType": "address",
          "name": "owner",
          "type": "address"
        }
      ],
      "name": "OwnableInvalidOwner",
      "type": "error"
    },
    {
      "inputs": [
        {
          "internalType": "address",
          "name": "account",
          "type": "address"
        }
      ],
      "name": "OwnableUnauthorizedAccount",
      "type": "error"
    },
    {
      "anonymous": false,
      "inputs": [
        {
          "indexed": true,
          "internalType": "address",
          "name": "owner",
          "type": "address"
        },
        {
          "indexed": true,
          "internalType": "address",
          "name": "approved",
          "type": "address"
        },
        {
          "indexed": true,
          "internalType": "uint256",
          "name": "tokenId",
          "type": "uint256"
        }
      ],
      "name": "Approval",
      "type": "event"
    },
    {
      "anonymous": false,
      "inputs": [
        {
          "indexed": true,
          "internalType": "address",
          "name": "owner",
          "type": "address"
        },
        {
          "indexed": true,
          "internalType": "address",
          "name": "operator",
          "type": "address"
        },
        {
          "indexed": false,
          "internalType": "bool",
          "name": "approved",
          "type": "bool"
        }
      ],
      "name": "ApprovalForAll",
      "type": "event"
    },
    {
      "anonymous": false,
      "inputs": [
        {
          "indexed": false,
          "internalType": "uint256",
          "name": "_fromTokenId",
          "type": "uint256"
        },
        {
          "indexed": false,
          "internalType": "uint256",
          "name": "_toTokenId",
          "type": "uint256"
        }
      ],
      "name": "BatchMetadataUpdate",
      "type": "event"
    },
    {
      "anonymous": false,
      "inputs": [
        {
          "indexed": true,
          "internalType": "address",
          "name": "healer",
          "type": "address"
        },
        {
          "indexed": false,
          "internalType": "uint256",
          "name": "tokenId",
          "type": "uint256"
        },
        {
          "indexed": false,
          "internalType": "uint256",
          "name": "vitalScore",
          "type": "uint256"
        }
      ],
      "name": "CareMinted",
      "type": "event"
    },
    {
      "anonymous": false,
      "inputs": [
        {
          "indexed": false,
          "internalType": "uint256",
          "name": "_tokenId",
          "type": "uint256"
        }
      ],
      "name": "MetadataUpdate",
      "type": "event"
    },
    {
      "anonymous": false,
      "inputs": [
        {
          "indexed": true,
          "internalType": "address",
          "name": "previousOwner",
          "type": "address"
        },
        {
          "indexed": true,
          "internalType": "address",
          "name": "newOwner",
          "type": "address"
        }
      ],
      "name": "OwnershipTransferred",
      "type": "event"
    },
    {
      "anonymous": false,
      "inputs": [
        {
          "indexed": true,
          "internalType": "address",
          "name": "from",
          "type": "address"
        },
        {
          "indexed": true,
          "internalType": "address",
          "name": "to",
          "type": "address"
        },
        {
          "indexed": true,
          "internalType": "uint256",
          "name": "tokenId",
          "type": "uint256"
        }
      ],
      "name": "Transfer",
      "type": "event"
    },
    {
      "inputs": [
        {
          "internalType": "address",
          "name": "to",
          "type": "address"
        },
        {
          "internalType": "uint256",
          "name": "tokenId",
          "type": "uint256"
        }
      ],
      "name": "approve",
      "outputs": [],
      "stateMutability": "nonpayable",
      "type": "function"
    },
    {
      "inputs": [
        {
          "internalType": "address",
          "name": "owner",
          "type": "address"
        }
      ],
      "name": "balanceOf",
      "outputs": [
        {
          "internalType": "uint256",
          "name": "",
          "type": "uint256"
        }
      ],
      "stateMutability": "view",
      "type": "function"
    },
    {
      "inputs": [
        {
          "internalType": "uint256",
          "name": "tokenId",
          "type": "uint256"
        }
      ],
      "name": "burn",
      "outputs": [],
      "stateMutability": "nonpayable",
      "type": "function"
    },
    {
      "inputs": [
        {
          "internalType": "uint256",
          "name": "",
          "type": "uint256"
        }
      ],
      "name": "careRecords",
      "outputs": [
        {
          "internalType": "uint256",
          "name": "timestamp",
          "type": "uint256"
        },
        {
          "internalType": "uint256",
          "name": "vitalScore",
          "type": "uint256"
        },
        {
          "internalType": "string",
          "name": "proofType",
          "type": "string"
        }
      ],
      "stateMutability": "view",
      "type": "function"
    },
    {
      "inputs": [
        {
          "internalType": "uint256",
          "name": "tokenId",
          "type": "uint256"
        }
      ],
      "name": "getApproved",
      "outputs": [
        {
          "internalType": "address",
          "name": "",
          "type": "address"
        }
      ],
      "stateMutability": "view",
      "type": "function"
    },
    {
      "inputs": [
        {
          "internalType": "address",
          "name": "owner",
          "type": "address"
        },
        {
          "internalType": "address",
          "name": "operator",
          "type": "address"
        }
      ],
      "name": "isApprovedForAll",
      "outputs": [
        {
          "internalType": "bool",
          "name": "",
          "type": "bool"
        }
      ],
      "stateMutability": "view",
      "type": "function"
    },
    {
      "inputs": [],
      "name": "name",
      "outputs": [
        {
          "internalType": "string",
          "name": "",
          "type": "string"
        }
      ],
      "stateMutability": "view",
      "type": "function"
    },
    {
      "inputs": [],
      "name": "owner",
      "outputs": [
        {
          "internalType": "address",
          "name": "",
          "type": "address"
        }
      ],
      "stateMutability": "view",
      "type": "function"
    },
    {
      "inputs": [
        {
          "internalType": "uint256",
          "name": "tokenId",
          "type": "uint256"
        }
      ],
      "name": "ownerOf",
      "outputs": [
        {
          "internalType": "address",
          "name": "",
          "type": "address"
        }
      ],
      "stateMutability": "view",
      "type": "function"
    },
    {
      "inputs": [],
      "name": "renounceOwnership",
      "outputs": [],
      "stateMutability": "nonpayable",
      "type": "function"
    },
    {
      "inputs": [
        {
          "internalType": "address",
          "name": "to",
          "type": "address"
        },
        {
          "internalType": "string",
          "name": "uri",
          "type": "string"
        },
        {
          "internalType": "uint256",
          "name": "vitalScore",
          "type": "uint256"
        }
      ],
      "name": "safeMint",
      "outputs": [],
      "stateMutability": "nonpayable",
      "type": "function"
    },
    {
      "inputs": [
        {
          "internalType": "address",
          "name": "from",
          "type": "address"
        },
        {
          "internalType": "address",
          "name": "to",
          "type": "address"
        },
        {
          "internalType": "uint256",
          "name": "tokenId",
          "type": "uint256"
        }
      ],
      "name": "safeTransferFrom",
      "outputs": [],
      "stateMutability": "nonpayable",
      "type": "function"
    },
    {
      "inputs": [
        {
          "internalType": "address",
          "name": "from",
          "type": "address"
        },
        {
          "internalType": "address",
          "name": "to",
          "type": "address"
        },
        {
          "internalType": "uint256",
          "name": "tokenId",
          "type": "uint256"
        },
        {
          "internalType": "bytes",
          "name": "data",
          "type": "bytes"
        }
      ],
      "name": "safeTransferFrom",
      "outputs": [],
      "stateMutability": "nonpayable",
      "type": "function"
    },
    {
      "inputs": [
        {
          "internalType": "address",
          "name": "operator",
          "type": "address"
        },
        {
          "internalType": "bool",
          "name": "approved",
          "type": "bool"
        }
      ],
      "name": "setApprovalForAll",
      "outputs": [],
      "stateMutability": "nonpayable",
      "type": "function"
    },
    {
      "inputs": [
        {
          "internalType": "bytes4",
          "name": "interfaceId",
          "type": "bytes4"
        }
      ],
      "name": "supportsInterface",
      "outputs": [
        {
          "internalType": "bool",
          "name": "",
          "type": "bool"
        }
      ],
      "stateMutability": "view",
      "type": "function"
    },
    {
      "inputs": [],
      "name": "symbol",
      "outputs": [
        {
          "internalType": "string",
          "name": "",
          "type": "string"
        }
      ],
      "stateMutability": "view",
      "type": "function"
    },
    {
      "inputs": [
        {
          "internalType": "uint256",
          "name": "tokenId",
          "type": "uint256"
        }
      ],
      "name": "tokenURI",
      "outputs": [
        {
          "internalType": "string",
          "name": "",
          "type": "string"
        }
      ],
      "stateMutability": "view",
      "type": "function"
    },
    {
      "inputs": [
        {
          "internalType": "address",
          "name": "from",
          "type": "address"
        },
        {
          "internalType": "address",
          "name": "to",
          "type": "address"
        },
        {
          "internalType": "uint256",
          "name": "tokenId",
          "type": "uint256"
        }
      ],
      "name": "transferFrom",
      "outputs": [],
      "stateMutability": "nonpayable",
      "type": "function"
    },
    {
      "inputs": [
        {
          "internalType": "address",
          "name": "newOwner",
          "type": "address"
        }
      ],
      "name": "transferOwnership",
      "outputs": [],
      "stateMutability": "nonpayable",
      "type": "function"
    }
  ],
  "bytecode": "0x60806040523480156200001157600080fd5b506040516200191238038062001912833981016040819052620000349162000144565b806040518060400160405280601481526020017f534f4c554e412050726f6f662d6f662d43617265000000000000000000000000815250604051806040016040528060048152602001634341524560e01b81525081600090816200009991906200021b565b506001620000a882826200021b565b5050506001600160a01b038116620000da57604051631e4fbdf760e01b81526000600482015260240160405180910390fd5b620000e581620000f2565b50506001600855620002e7565b600780546001600160a01b038381166001600160a01b0319831681179093556040519116919082907f8be0079c531659141344cd1fd0a4f28419497f9722a3daafe3b4186f6b6457e090600090a35050565b6000602082840312156200015757600080fd5b81516001600160a01b03811681146200016f57600080fd5b9392505050565b634e487b7160e01b600052604160045260246000fd5b600181811c90821680620001a157607f821691505b602082108103620001c257634e487b7160e01b600052602260045260246000fd5b50919050565b601f8211156200021657600081815260208120601f850160051c81016020861015620001f15750805b601f850160051c820191505b818110156200021257828155600101620001fd565b5050505b505050565b81516001600160401b0381111562000237576200023762000176565b6200024f816200024884546200018c565b84620001c8565b602080601f8311600181146200028757600084156200026e5750858301515b600019600386901b1c1916600185901b17855562000212565b600085815260208120601f198616915b82811015620002b85788860151825594840194600190910190840162000297565b5085821015620002d75787850151600019600388901b60f8161c191681555b5050505050600190811b01905550565b61161b80620002f76000396000f3fe608060405234801561001057600080fd5b50600436106101215760003560e01c806370a08231116100ad578063b88d4fde11610071578063b88d4fde14610266578063c772745a14610279578063c87b56dd1461028c578063e985e9c51461029f578063f2fde38b146102b257600080fd5b806370a0823114610211578063715018a6146102325780638da5cb5b1461023a57806395d89b411461024b578063a22cb4651461025357600080fd5b806323b872dd116100f457806323b872dd146101a35780632db70bf1146101b657806342842e0e146101d857806342966c68146101eb5780636352211e146101fe57600080fd5b806301ffc9a71461012657806306fdde031461014e578063081812fc14610163578063095ea7b31461018e575b600080fd5b6101396101343660046110b5565b6102c5565b60405190151581526020015b60405180910390f35b6101566102d6565b6040516101459190611122565b610176610171366004611135565b610368565b6040516001600160a01b039091168152602001610145565b6101a161019c36600461116a565b610391565b005b6101a16101b1366004611194565b6103a0565b6101c96101c4366004611135565b610430565b604051610145939291906111d0565b6101a16101e6366004611194565b6104db565b6101a16101f9366004611135565b6104fb565b61017661020c366004611135565b610507565b61022461021f3660046111f8565b610512565b604051908152602001610145565b6101a161055a565b6007546001600160a01b0316610176565b61015661056e565b6101a1610261366004611213565b61057d565b6101a16102743660046112db565b610588565b6101a1610287366004611357565b6105a0565b61015661029a366004611135565b610686565b6101396102ad3660046113c2565b610691565b6101a16102c03660046111f8565b6106bf565b60006102d0826106fd565b92915050565b6060600080546102e5906113f5565b80601f0160208091040260200160405190810160405280929190818152602001828054610311906113f5565b801561035e5780601f106103335761010080835404028352916020019161035e565b820191906000526020600020905b81548152906001019060200180831161034157829003601f168201915b5050505050905090565b600061037382610722565b506000828152600460205260409020546001600160a01b03166102d0565b61039c82823361075b565b5050565b6001600160a01b0382166103cf57604051633250574960e11b8152600060048201526024015b60405180910390fd5b60006103dc838333610768565b9050836001600160a01b0316816001600160a01b03161461042a576040516364283d7b60e01b81526001600160a01b03808616600483015260248201849052821660448201526064016103c6565b50505050565b60096020526000908152604090208054600182015460028301805492939192610458906113f5565b80601f0160208091040260200160405190810160405280929190818152602001828054610484906113f5565b80156104d15780601f106104a6576101008083540402835291602001916104d1565b820191906000526020600020905b8154815290600101906020018083116104b457829003601f168201915b5050505050905083565b6104f683838360405180602001604052806000815250610588565b505050565b61039c60008233610768565b60006102d082610722565b60006001600160a01b03821661053e576040516322718ad960e21b8152600060048201526024016103c6565b506001600160a01b031660009081526003602052604090205490565b610562610861565b61056c600061088e565b565b6060600180546102e5906113f5565b61039c3383836108e0565b6105938484846103a0565b61042a338585858561097f565b60088054600091826105b18361142f565b9190505590506105c18482610aaa565b6105cb8184610ac4565b604080516060810182524281526020808201858152835180850185526013815272159a5cdd585b17d59bda58d957d21e589c9a59606a1b818401528385019081526000868152600990935293909120825181559051600182015591519091906002820190610639908261149c565b505060408051838152602081018590526001600160a01b03871692507f68c7e306fb4697f2f9bb72e6f5b446dc03aec6360c808b2b8530aa68dde37478910160405180910390a250505050565b60606102d082610b14565b6001600160a01b03918216600090815260056020908152604080832093909416825291909152205460ff1690565b6106c7610861565b6001600160a01b0381166106f157604051631e4fbdf760e01b8152600060048201526024016103c6565b6106fa8161088e565b50565b60006001600160e01b03198216632483248360e11b14806102d057506102d082610c25565b6000818152600260205260408120546001600160a01b0316806102d057604051637e27328960e01b8152600481018490526024016103c6565b6104f68383836001610c75565b6000828152600260205260408120546001600160a01b039081169083161561079557610795818486610d7b565b6001600160a01b038116156107d3576107b2600085600080610c75565b6001600160a01b038116600090815260036020526040902080546000190190555b6001600160a01b03851615610802576001600160a01b0385166000908152600360205260409020805460010190555b60008481526002602052604080822080546001600160a01b0319166001600160a01b0389811691821790925591518793918516917fddf252ad1be2c89b69c2b068fc378daa952ba7f163c4a11628f55a4df523b3ef91a4949350505050565b6007546001600160a01b0316331461056c5760405163118cdaa760e01b81523360048201526024016103c6565b600780546001600160a01b038381166001600160a01b0319831681179093556040519116919082907f8be0079c531659141344cd1fd0a4f28419497f9722a3daafe3b4186f6b6457e090600090a35050565b6001600160a01b03821661091257604051630b61174360e31b81526001600160a01b03831660048201526024016103c6565b6001600160a01b03838116600081815260056020908152604080832094871680845294825291829020805460ff191686151590811790915591519182527f17307eab39ab6107e8899845ad3d59bd9653f200f220920489ca2b5937696c31910160405180910390a3505050565b6001600160a01b0383163b15610aa357604051630a85bd0160e11b81526001600160a01b0384169063150b7a02906109c190889088908790879060040161155c565b6020604051808303816000875af19250505080156109fc575060408051601f3d908101601f191682019092526109f991810190611599565b60015b610a65573d808015610a2a576040519150601f19603f3d011682016040523d82523d6000602084013e610a2f565b606091505b508051600003610a5d57604051633250574960e11b81526001600160a01b03851660048201526024016103c6565b805160208201fd5b6001600160e01b03198116630a85bd0160e11b14610aa157604051633250574960e11b81526001600160a01b03851660048201526024016103c6565b505b5050505050565b61039c828260405180602001604052806000815250610ddf565b6000828152600660205260409020610adc828261149c565b506040518281527ff8e1a15aba9398e019f0b49df1a4fde98ee17ae345cb5f6b5e2c27f5033e8ce79060200160405180910390a15050565b6060610b1f82610722565b5060008281526006602052604081208054610b39906113f5565b80601f0160208091040260200160405190810160405280929190818152602001828054610b65906113f5565b8015610bb25780601f10610b8757610100808354040283529160200191610bb2565b820191906000526020600020905b815481529060010190602001808311610b9557829003601f168201915b505050505090506000610bd060408051602081019091526000815290565b90508051600003610be2575092915050565b815115610c14578082604051602001610bfc9291906115b6565b60405160208183030381529060405292505050919050565b610c1d84610df7565b949350505050565b60006001600160e01b031982166380ac58cd60e01b1480610c5657506001600160e01b03198216635b5e139f60e01b145b806102d057506301ffc9a760e01b6001600160e01b03198316146102d0565b8080610c8957506001600160a01b03821615155b15610d4b576000610c9984610722565b90506001600160a01b03831615801590610cc55750826001600160a01b0316816001600160a01b031614155b8015610cd85750610cd68184610691565b155b15610d015760405163a9fbf51f60e01b81526001600160a01b03841660048201526024016103c6565b8115610d495783856001600160a01b0316826001600160a01b03167f8c5be1e5ebec7d5bd14f71427d1e84f3dd0314c0f7b2291e5b200ac8c7c3b92560405160405180910390a45b505b5050600090815260046020526040902080546001600160a01b0319166001600160a01b0392909216919091179055565b610d86838383610e6c565b6104f6576001600160a01b038316610db457604051637e27328960e01b8152600481018290526024016103c6565b60405163177e802f60e01b81526001600160a01b0383166004820152602481018290526044016103c6565b610de98383610ecf565b6104f633600085858561097f565b6060610e0282610722565b506000610e1a60408051602081019091526000815290565b90506000815111610e3a5760405180602001604052806000815250610e65565b80610e4484610f34565b604051602001610e559291906115b6565b6040516020818303038152906040525b9392505050565b60006001600160a01b03831615801590610c1d5750826001600160a01b0316846001600160a01b03161480610ea65750610ea68484610691565b80610c1d5750506000908152600460205260409020546001600160a01b03908116911614919050565b6001600160a01b038216610ef957604051633250574960e11b8152600060048201526024016103c6565b6000610f0783836000610768565b90506001600160a01b038116156104f6576040516339e3563760e11b8152600060048201526024016103c6565b60606000610f4183610fc7565b600101905060008167ffffffffffffffff811115610f6157610f6161124f565b6040519080825280601f01601f191660200182016040528015610f8b576020820181803683370190505b5090508181016020015b600019016f181899199a1a9b1b9c1cb0b131b232b360811b600a86061a8153600a8504945084610f9557509392505050565b60008072184f03e93ff9f4daa797ed6e38ed64bf6a1f0160401b83106110065772184f03e93ff9f4daa797ed6e38ed64bf6a1f0160401b830492506040015b6d04ee2d6d415b85acef81000000008310611032576d04ee2d6d415b85acef8100000000830492506020015b662386f26fc10000831061105057662386f26fc10000830492506010015b6305f5e1008310611068576305f5e100830492506008015b612710831061107c57612710830492506004015b6064831061108e576064830492506002015b600a83106102d05760010192915050565b6001600160e01b0319811681146106fa57600080fd5b6000602082840312156110c757600080fd5b8135610e658161109f565b60005b838110156110ed5781810151838201526020016110d5565b50506000910152565b6000815180845261110e8160208601602086016110d2565b601f01601f19169290920160200192915050565b602081526000610e6560208301846110f6565b60006020828403121561114757600080fd5b5035919050565b80356001600160a01b038116811461116557600080fd5b919050565b6000806040838503121561117d57600080fd5b6111868361114e565b946020939093013593505050565b6000806000606084860312156111a957600080fd5b6111b28461114e565b92506111c06020850161114e565b9150604084013590509250925092565b8381528260208201526060604082015260006111ef60608301846110f6565b95945050505050565b60006020828403121561120a57600080fd5b610e658261114e565b6000806040838503121561122657600080fd5b61122f8361114e565b91506020830135801515811461124457600080fd5b809150509250929050565b634e487b7160e01b600052604160045260246000fd5b600067ffffffffffffffff808411156112805761128061124f565b604051601f8501601f19908116603f011681019082821181831017156112a8576112a861124f565b816040528093508581528686860111156112c157600080fd5b858560208301376000602087830101525050509392505050565b600080600080608085870312156112f157600080fd5b6112fa8561114e565b93506113086020860161114e565b925060408501359150606085013567ffffffffffffffff81111561132b57600080fd5b8501601f8101871361133c57600080fd5b61134b87823560208401611265565b91505092959194509250565b60008060006060848603121561136c57600080fd5b6113758461114e565b9250602084013567ffffffffffffffff81111561139157600080fd5b8401601f810186136113a257600080fd5b6113b186823560208401611265565b925050604084013590509250925092565b600080604083850312156113d557600080fd5b6113de8361114e565b91506113ec6020840161114e565b90509250929050565b600181811c9082168061140957607f821691505b60208210810361142957634e487b7160e01b600052602260045260246000fd5b50919050565b60006001820161144f57634e487b7160e01b600052601160045260246000fd5b5060010190565b601f8211156104f657600081815260208120601f850160051c8101602086101561147d5750805b601f850160051c820191505b81811015610aa157828155600101611489565b815167ffffffffffffffff8111156114b6576114b661124f565b6114ca816114c484546113f5565b84611456565b602080601f8311600181146114ff57600084156114e75750858301515b600019600386901b1c1916600185901b178555610aa1565b600085815260208120601f198616915b8281101561152e5788860151825594840194600190910190840161150f565b508582101561154c5787850151600019600388901b60f8161c191681555b5050505050600190811b01905550565b6001600160a01b038581168252841660208201526040810183905260806060820181905260009061158f908301846110f6565b9695505050505050565b6000602082840312156115ab57600080fd5b8151610e658161109f565b600083516115c88184602088016110d2565b8351908301906115dc8183602088016110d2565b0194935050505056fea264697066735822122058b6515cc48499e0db85a6b38087c1bd0dfed718add718c8f059f7788831688e64736f6c63430008140033",
  "linkReferences": {},
  "deployedLinkReferences": {}
}